:020000040800F2
:100000000050002051090008A1090008A1090008BA
:10001000A1090008A1090008A109000800000000CA
:10002000000000000000000000000000A10900081E
:10003000A109000800000000A1090008F904000857
:10004000A1090008A1090008A1090008A1090008E8
:10005000A1090008A1090008A1090008A1090008D8
:10006000A1090008A1090008A1090008A1090008C8
:10007000A1090008A1090008A1090008A1090008B8
:10008000A1090008A1090008A1090008A1090008A8
:10009000A1090008A1090008A1090008A109000898
:1000A000A1090008A1090008A1090008A109000888
:1000B000A1090008A1090008A1090008A109000878
:1000C000A1090008A1090008A1090008A109000868
:1000D000A10900089907000865080008A10900089F
:1000E000A1090008A109000800000000A1090008FA
:1000F000A1090008A1090008A1090008A109000838
:10010000A1090008A1090008A1090008A109000827
:10011000A1090008A1090008A1090008A109000817
:10012000A1090008A1090008A1090008A109000807
:1001300010B5054C237833B9044B13B10448AFF321
:1001400000800123237010BD00000020000000008B
:10015000EC09000808B5034B1BB103490348AFF392
:10016000008008BD0000000004000020EC09000829
:1001700080B500AF074800F0D5FA074800F0CEF987
:10018000064800F0CFFA064800F0C8F900F09EF8E3
:1001900000BF80BD040A000840420F000C0A00089E
:1001A000808D5B0080B582B000AF7860396000F070
:1001B0008DF80E4800F0B6FA786800F0B3FA0C48F3
:1001C00000F0B0FA386800F0ADFA0A4800F0AAFA78
:1001D000094800F0A3F9084800F0A0F9064800F02B
:1001E0009DF900BF0837BD4680BD00BF140A000856
:1001F000240A0008280A0008808D5B0080B582B0C0
:1002000000AF7860396000F061F80B4800F08AFABE
:10021000786800F087FA094800F084FA386800F03E
:1002200081FA074800F07EFA064800F077F900BF2F
:100230000837BD4680BD00BF2C0A0008400A0008F0
:10024000440A000800093D0080B586B000AFF860A0
:10025000B9607A600023FB7500F038F8144800F0AC
:1002600061FA786800F05EFA124800F05BFA124812
:1002700000F054F900F02AF8104800F053FAF8683A
:1002800000F050FAB86800F04DFA0A4800F04AFA57
:100290000B4800F043F90B4B93F82530FB750A49E6
:1002A000F868FFF7ABFFFB7D18461837BD4680BDE9
:1002B000480A0008440A000800127A00540A00089C
:1002C00000B4C4041C000020600A000880B483B09D
:1002D00000AF0023FB710B4B00221A700023FB714F
:1002E00006E0FB79084A0021D154FB790133FB7108
:1002F000FB79952BF5D900BF00BF0C37BD4680BCFC
:10030000704700BFE40000201C00002080B582B0D0
:1003100000AF0023FB7100F021FA0346FB71FB796B
:10032000002B03D0FB79184600F084FA00BF083791
:10033000BD4680BD80B483B000AF0346FB710B4661
:10034000BB7113467B71FB79022B7AD0022B00F331
:10035000B180002B02D0012B3AD0ABE0BB79072B48
:1003600017D85A4B1B68BA7992000F2101FA02F292
:10037000D2431146554A0B401360544B1B687979A0
:10038000BA79920001FA02F21146504A0B43136007
:1003900092E0BB790F2B00F28F80BB79083BBB71D9
:1003A0004A4B5B68BA7992000F2101FA02F2D243FC
:1003B0001146464A0B405360444B5B687979BA79E1
:1003C000920001FA02F21146404A0B43536073E077
:1003D000BB79072B17D83E4B1B68BA7992000F21C7
:1003E00001FA02F2D2431146394A0B401360384BEE
:1003F0001B687979BA79920001FA02F21146344AFF
:100400000B4313605AE0BB790F2B57D8BB79083BDD
:10041000BB712F4B5B68BA7992000F2101FA02F28F
:10042000D24311462A4A0B405360294B5B687979C5
:10043000BA79920001FA02F21146254A0B43536041
:100440003CE0BB79072B17D8224B1B68BA79920086
:100450000F2101FA02F2D24311461E4A0B401360EB
:100460001C4B1B687979BA79920001FA02F21146A5
:10047000184A0B43136023E0BB790F2B20D8BB79BC
:10048000083BBB71134B5B68BA7992000F2101FAEC
:1004900002F2D24311460F4A0B4053600D4B5B688A
:1004A0007979BA79920001FA02F21146094A0B43AE
:1004B000536005E000BF04E000BF02E000BF00E0C1
:1004C00000BF00BF0C37BD4680BC7047000801402C
:1004D000000C01400010014080B400AF054B1B68C8
:1004E0001B0CDBB203F00103DBB21846BD4680BC37
:1004F000704700BF10E000E080B582B000AF00237D
:10050000FB71054B1B689847FFF7E6FF0346FB713D
:1005100000BF0837BD4680BDE800002080B483B02E
:1005200000AF7860104A7B6853600F4B1B680E4A1F
:1005300043F00103136000BF0B4B1B6803F48033CF
:10054000002BF9D0084B1B68074A23F00103136006
:10055000054B00225A60044B00229A6000BF0C3702
:10056000BD4680BC704700BF10E000E080B483B09F
:1005700000AF0346FB71FB7903F01F03012202FA6F
:1005800003F1054AFB795B09DBB242F8231000BF97
:100590000C37BD4680BC704700E100E080B483B0FA
:1005A00000AF00237B60154B5B68144A43F00103E6
:1005B0005360124B5B68114A23F0020353600F4BE8
:1005C0001B680E4A43F48033136002E07B680133FA
:1005D0007B600A4B1B6803F40033002B03D17B685C
:1005E000074A9342F2D9054B1B68044A23F40023BF
:1005F000136000BF0C37BD4680BC7047001002403E
:100600009F86010080B483B000AF03460A46FB71A9
:100610001346BB71FB79022B1CD0022B25DC002B6F
:1006200002D0012B0BD020E0124B5B69BA7901217B
:1006300001FA02F211460F4A0B43536115E00D4BCC
:10064000DB69BA79012101FA02F21146094A0B432A
:10065000D3610AE0074B9B69BA79012101FA02F2E2
:100660001146044A0B43936100BF00BF0C37BD46DF
:1006700080BC70470010024080B400AF1C4B0022C9
:100680001A601B4B45229A60194BDB68184A23F409
:100690008053D360164BDB68154A23F48063D36024
:1006A000134BDB68124A43F00803D360104BDB683E
:1006B0000F4A43F00403D3600D4B1B690C4A23F42B
:1006C000805313610A4B1B69094A23F400531361D9
:1006D000074BDB68064A43F02003D360044BDB681A
:1006E000034A43F40053D36000BFBD4680BC70474B
:1006F0000038014080B483B000AF0346FB71084A64
:10070000FB79536000BF064B1B6803F04003002BCE
:10071000F9D000BF00BF0C37BD4680BC704700BF9A
:100720000038014080B584B000AF78600023FB73CF
:1007300009E0FB7B7A6813441B781846FFF7DAFF61
:10074000FB7B0133FB73FB7B7A6813441B78002B24
:10075000EFD100BF00BF1037BD4680BD80B483B06D
:1007600000AF0023FB71044B5B68FB71FB791846FB
:100770000C37BD4680BC70470038014080B483B060
:1007800000AF7860034A7B68136000BF0C37BD463A
:1007900080BC7047EC00002080B500AF024B1B68A6
:1007A000984700BF80BD00BFEC00002080B400AFC0
:1007B0001F4B00221A601E4B45229A601C4BDB68BF
:1007C0001B4A23F48053D360194BDB68184A23F487
:1007D0008063D360164BDB68154A43F00803D3608F
:1007E000134BDB68124A43F00403D360104B1B69C0
:1007F0000F4A23F4805313610D4B1B690C4A23F4F9
:10080000005313610A4BDB68094A43F02003D360AD
:10081000074BDB68064A43F40053D360044B0022C5
:100820001A60034B00225A6000BFBD4680BC70476F
:100830000044004080B483B000AF0346FB71084A17
:10084000FB79536000BF064B1B6803F04003002B8D
:10085000F9D000BF00BF0C37BD4680BC704700BF59
:100860000044004080B500AF024B1B68984700BFB2
:1008700080BD00BFF000002080B582B000AF002333
:10088000FB710023BB7100237B7100233B71FFF7D9
:1008900085FE02210220FFF7B5FE03210220FFF7AB
:1008A000B1FE04210220FFF7ADFE0E210220FFF76A
:1008B000A9FE11210120FFF7A5FE0A22092100202F
:1008C000FFF738FD04220A210020FFF733FD0A223A
:1008D00002210020FFF72EFD042203210020FFF754
:1008E00029FDFFF7C9FE1248FFF748FFFFF75EFF3B
:1008F0004B20FFF79FFF6A20FFF79CFF6D20FFF75B
:1009000099FF0A20FFF796FFFFF732FC09490A48D2
:10091000FFF748FC09490A48FFF770FC094A0A49F1
:100920000A48FFF791FC2520FFF720FEFEE700BFF5
:100930000D030008640A0008700A0008800A000815
:10094000840A0008940A0008980A0008AC0A000803
:100950000D488546AFF300800C480D490D4A002331
:1009600002E0D458C4500433C4188C42F9D30A4A64
:100970000A4C002301E013600432A242FBD300F0D2
:1009800011F8FFF779FFFEE700500020000000207B
:1009900000000020CC0A000800000020F400002025
:1009A000FEE7000070B500260C4D0D4C641BA41032
:1009B000A64209D100F01AF800260A4D0A4C641B21
:1009C000A410A64205D170BD55F8043B98470136E6
:1009D000EEE755F8043B98470136F2E7C40A0008F1
:1009E000C40A0008C40A0008C80A0008F8B500BF15
:1009F000F8BC08BC9E467047F8B500BFF8BC08BC00
:040A00009E46704757
:100A040041540D0A00000000415445300D0A000015
:100A140041542B43574A41505F4355523D220000F5
:100A2400222C2200220D0A0041542B4349505354D6
:100A34004152543D22544350222C2200222C0000C7
:100A44000D0A000041542B43495053454E443D0088
:100A540047455420687474703A2F2F0038300000D2
:100A64003132333132333132330000004445534B99
:100A7400544F502D4D44393548394F00383000001B
:100A840036392E3139372E3134332E3134000000CB
:100A94003632000075706C6F6164732F75706C6F03
:100AA4006164312E74787400666F74612D6D6D6DA0
:100AB4002E667265657661722E636F6D2F0000007D
:040AC40055010008D0
:040AC80031010008F0
:040000050800095195
:00000001FF
