:020000040800F2
:10000000005000201D0600086D0600086D0600085F
:100010006D0600086D0600086D060008000000006F
:100020000000000000000000000000006D06000855
:100030006D060008000000006D060008810300083E
:100040006D0600086D0600086D0600086D060008C4
:100050006D0600086D0600086D0600086D060008B4
:100060006D0600086D0600086D0600086D060008A4
:100070006D0600086D0600086D0600086D06000894
:100080006D0600086D0600086D0600086D06000884
:100090006D0600086D0600086D0600086D06000874
:1000A0006D0600086D0600086D0600086D06000864
:1000B0006D0600086D0600086D0600086D06000854
:1000C0006D0600086D0600086D0600086D06000844
:1000D0006D060008DD0400084D0500086D060008E7
:1000E0006D0600086D060008000000006D0600089F
:1000F0006D0600086D0600086D0600086D06000814
:100100006D0600086D0600086D0600086D06000803
:100110006D0600086D0600086D0600086D060008F3
:100120006D0600086D0600086D0600086D060008E3
:1001300010B5054C237833B9044B13B10448AFF321
:1001400000800123237010BD00000020000000008B
:10015000C806000808B5034B1BB103490348AFF3B9
:10016000008008BD0000000004000020C806000850
:100170000021034B96220348197000F078BA00BFA3
:10018000E40000201C00002008B5084800F08EF9AB
:10019000074800F005F9074800F088F9064800F024
:1001A000FFF8BDE80840FFF7E3BF00BFE006000826
:1001B00040420F00E5060008808D5B0038B505461B
:1001C0000C46FFF7D5FF0D4800F070F9284600F007
:1001D0006DF90B4800F06AF920460A4C00F066F908
:1001E000094800F063F9204600F0DAF8204600F0F4
:1001F000D7F82046BDE8384000F0D2B8EC06000839
:100200000F070008808D5B00FB06000838B5054627
:100210000C46FFF7ADFF0A4800F048F9284600F009
:1002200045F9084800F042F9204600F03FF9064839
:1002300000F03CF9BDE83840044800F0B1B800BF18
:10024000FF06000813070008FC06000800093D002F
:1002500070B5164604460D46FFF78AFF134800F0B6
:1002600025F93046124E00F021F9304600F01EF913
:10027000104800F095F8FFF77BFF0F4800F016F9E3
:10028000204600F013F9284600F010F9304600F03F
:100290000DF90A4800F084F8094B204693F82550E0
:1002A0000849FFF7B3FF284670BD00BF16070008D6
:1002B000FC06000800127A002207000800B4C404FB
:1002C0001C0000202E07000808B500F0FBF818B14C
:1002D000BDE8084000F032B908BD0000012810B5A3
:1002E00024D002282AD070B907290DD81E4B0F241C
:1002F000186889008C4020EA04001860186802FA27
:1003000001F10143196010BD0F29FCD8164B0F24D1
:100310000839C9B2586889008C4020EA0400586046
:10032000586802FA01F101435960ECE7072901D846
:100330000E4BDCE70F29E6D80C4BE8E7072901D87C
:100340000B4BD4E70F29DED80F24094B0839C9B26B
:10035000586889008C4020EA0400586058688A4038
:1003600002435A60CFE700BF00080140000C014083
:10037000001001404FF0E0231869C0F300407047BF
:10038000002307B58DF80730044B1B689847FFF72B
:10039000F1FF8DF8070003B05DF804FBE8000020D2
:1003A0004FF0E02358611A6942F001021A611A699C
:1003B000D203FCD51A6922F001021A6100225A61A7
:1003C0009A61704701234109034A00F01F008340EE
:1003D00042F82130704700BF00E100E00B4B5A6843
:1003E00042F001025A605A6822F002025A601A680A
:1003F00042F480321A60064A1968890301D4013A2E
:10040000FAD11A6822F400221A60704700100240E4
:10041000A1860100012809D002280DD090B901233E
:10042000094A8B405069034353617047064B88402B
:10043000DA691043D86170470123034A8B40906901
:1004400003439361704700BF001002400022124B2B
:100450001A6045229A60DA6822F48052DA60DA681B
:1004600022F48062DA60DA6842F00802DA60DA6860
:1004700042F00402DA601A6922F480521A611A69A1
:1004800022F400521A61DA6842F02002DA60DA6877
:1004900042F40052DA60704700380140024B586065
:1004A0001A685206FCD570470038014010B500218B
:1004B0000446CBB2E05C013100B910BDFFF7EEFF9E
:1004C000F7E70000014B5868C0B2704700380140A0
:1004D000014B1860704700BFEC000020014B1B6807
:1004E000184700BFEC00002000224521124B1A6083
:1004F0009960D96821F48051D960D96821F480616C
:10050000D960D96841F00801D960D96841F0040187
:10051000D960196921F480511961196921F40051D8
:100520001961D96841F02001D960D96841F40051BE
:10053000D9601A605A60704700440040024B58600E
:100540001A685206FCD5704700440040014B1B68F6
:10055000184700BFF000002008B5FFF73FFF022159
:100560000846FFF757FF03210220FFF753FF04213E
:100570000220FFF74FFF0E210220FFF74BFF112152
:100580000120FFF747FF0A2209210020FFF7A6FEFE
:1005900004220A210020FFF7A1FE0A2202210020E6
:1005A000FFF79CFE042203210020FFF797FEFFF7D0
:1005B0004DFF1248FFF78CFFFFF796FF4B20FFF728
:1005C000BDFF6A20FFF7BAFF6D20FFF7B7FF0A20D3
:1005D000FFF7B4FFFFF7D8FD09490A48FFF7EEFD22
:1005E00009490A48FFF712FE094A0A490A48FFF773
:1005F0002FFE2520FFF7E6FEFEE700BFC902000838
:10060000310700083B0700082E0700084B070008C9
:10061000590700085C070008700700080D48854668
:10062000AFF300800C480D490D4A002302E0D45876
:10063000C4500433C4188C42F9D30A4A0A4C00232C
:1006400001E013600432A242FBD300F019F8FFF777
:1006500083FFFEE700500020000000200000002083
:100660009007000800000020F4000020FEE7034689
:100670000244934200D1704703F8011BF9E70000E0
:1006800070B500260C4D0D4C641BA410A64209D178
:1006900000F01AF800260A4D0A4C641BA410A6426A
:1006A00005D170BD55F8043B98470136EEE755F883
:1006B000043B98470136F2E78807000888070008DE
:1006C000880700088C070008F8B500BFF8BC08BC14
:1006D0009E467047F8B500BFF8BC08BC9E46704700
:1006E00041540D0A00415445300D0A0041542B433A
:1006F000574A41505F4355523D2200220D0A0041A6
:10070000542B43495053544152543D225443502298
:100710002C2200222C0041542B43495053454E4477
:100720003D0047455420687474703A2F2F003830CC
:1007300000313233313233313233004445534B547C
:100740004F502D4D44393548394F0036392E313907
:10075000372E3134332E31340036320075706C6FE1
:100760006164732F75706C6F6164312E74787400DE
:10077000666F74612D6D6D6D2E6672656576617242
:080780002E636F6D2F000000D5
:04078800550100080F
:04078C00310100082F
:040000050800061DCC
:00000001FF
