:020000040800F2
:100000000050002089030008D9030008D903000824
:10001000D9030008D9030008D90300080000000034
:10002000000000000000000000000000D9030008EC
:10003000D903000800000000D9030008D903000814
:10004000D9030008D9030008D9030008D903000820
:10005000D9030008D9030008D9030008D903000810
:10006000D9030008D9030008D9030008D903000800
:10007000D9030008D9030008D9030008D9030008F0
:10008000D9030008D9030008D9030008D9030008E0
:10009000D9030008D9030008D9030008D9030008D0
:1000A000D9030008D9030008D9030008D9030008C0
:1000B000D9030008D9030008D9030008D9030008B0
:1000C000D9030008D9030008D9030008D9030008A0
:1000D000D903000845030008D9030008D903000824
:1000E000D9030008D903000800000000D903000864
:1000F000D9030008D9030008D9030008D903000870
:10010000D9030008D9030008D9030008D90300085F
:10011000D9030008D9030008D9030008D90300084F
:10012000D9030008D9030008D9030008D90300083F
:1001300010B5054C237833B9044B13B10448AFF321
:1001400000800123237010BD00000020000000008B
:100150002404000808B5034B1BB103490348AFF35F
:10016000008008BD000000000400002024040008F6
:10017000012810B524D002282AD070B907290DD83B
:100180001E4B0F24186889008C4020EA0400186078
:10019000186802FA01F10143196010BD0F29FCD85B
:1001A000164B0F240839C9B2586889008C4020EAE0
:1001B00004005860586802FA01F101435960ECE705
:1001C000072901D80E4BDCE70F29E6D80C4BE8E7EE
:1001D000072901D80B4BD4E70F29DED80F24094B90
:1001E0000839C9B2586889008C4020EA0400586078
:1001F00058688A4002435A60CFE700BF00080140B8
:10020000000C014000100140012813D002281ED02C
:1002100078B9012A05D1124BD8688A400243DA60C6
:10022000704732B90E480122C3688A4023EA0203AC
:10023000C3607047012A01D10A4BEDE7002AF8D1CB
:10024000084A8840D36823EA0003D3607047012A34
:1002500001D1054BE0E7002AEBD10348E3E700BFFB
:1002600000080140000C014000100140012811D09D
:1002700002281CD068B929B94FF011335A43124BE8
:100280001A607047012904D14FF011335A430E4BC5
:100290005A60704721B94FF011335A430B4BEFE7C7
:1002A0000129F6D14FF011335A43084BF0E721B939
:1002B0004FF011335A43064BE2E70129E9D14FF0E1
:1002C00011335A43024BE3E700080140000C0140A0
:1002D000001001400B4B5A6842F001025A605A6804
:1002E00022F002025A601A6842F480321A60064A0A
:1002F0001968890301D4013AFAD11A6822F400225C
:100300001A60704700100240A1860100012809D040
:1003100002280DD090B90123094A8B40506903434C
:1003200053617047064B8840DA691043D8617047C3
:100330000123034A8B40906903439361704700BFD8
:10034000001002400022024B1A60024B1B68184743
:10035000003801401C00002008B5FFF7BBFF022158
:100360000846FFF7D3FF0A2202210020FFF700FF13
:10037000012202210020FFF747FF00210222084648
:10038000FFF774FFFEE700000D488546AFF30080DD
:100390000C480D490D4A002302E0D458C4500433E0
:1003A000C4188C42F9D30A4A0A4C002301E01360B6
:1003B0000432A242FBD300F011F8FFF7CDFFFEE7B5
:1003C000005000200000002000000020440400082D
:1003D0000000002020000020FEE7000070B500268D
:1003E0000C4D0D4C641BA410A64209D100F01AF864
:1003F00000260A4D0A4C641BA410A64205D170BD0C
:1004000055F8043B98470136EEE755F8043B98470A
:100410000136F2E73C0400083C0400083C040008F4
:1004200040040008F8B500BFF8BC08BC9E46704701
:0C043000F8B500BFF8BC08BC9E46704741
:04043C00550100085E
:04044000310100087E
:040000050800038963
:00000001FF
